:020000040000FA
:020000000528D1
:040002000034003492
:080008004F280317831688013D
:100010008901D8308100031361308F0006108610EB
:100020000611071187110712831286018701A43078
:100030008100A0308B001630A000FF30A1000530F9
:10004000A200FF30A3001630A400FF30A500C72097
:10005000C720C720C720C7200530A000FF30A1005F
:10006000C720C720C720C720C7208715C720C720A3
:10007000C720C720C7200716C720C720C720C72012
:10008000C7200715C720C720C720C720C7201630A4
:10009000A000FF30A1000711071287111B28A43010
:1000A0008100A10B5E280618592806142008A1001B
:1000B0005E2806102008C83CA1005E28A30B6B2810
:1000C0008618662886142208A3006B28861022084A
:1000D000C83CA3006B28A50B7828061973280615C1
:1000E0002408A500782806112408C83CA500782813
:1000F0000B110900000000000000000000000000DB
:1001000008007B30A600000098283030A6000000D0
:1001100098281730A600000098280A30A600000092
:100120000000000098280330A60000000000000036
:100130000000A60B98280800C830A700B328643038
:10014000A700B3283230A700B3281430A700B32883
:100150000A30A700B3280530A700B3280230A70053
:10016000B3280130A700F930A6000000A60BB5287F
:10017000A70BB3280800C830A800CC286430A8001A
:10018000CC283230A800CC281430A800CC280A3063
:10019000A800CC280530A8006430A700F930A600DC
:1001A0000000A60BD028A70BCE28A80BCC2808004F
:02400E00F42F8D
:00000001FF
